{
  "_format": "hh-sol-artifact-1",
  "contractName": "School",
  "sourceName": "contracts/School.sol",
  "abi": [
    {
      "inputs": [
        {
          "internalType": "uint256",
          "name": "_termFee",
          "type": "uint256"
        }
      ],
      "stateMutability": "nonpayable",
      "type": "constructor"
    },
    {
      "inputs": [
        {
          "internalType": "string",
          "name": "_name",
          "type": "string"
        }
      ],
      "name": "addStudent",
      "outputs": [],
      "stateMutability": "nonpayable",
      "type": "function"
    },
    {
      "inputs": [],
      "name": "endTerm",
      "outputs": [],
      "stateMutability": "nonpayable",
      "type": "function"
    },
    {
      "inputs": [
        {
          "internalType": "uint256",
          "name": "_id",
          "type": "uint256"
        },
        {
          "internalType": "uint256[3]",
          "name": "_grades",
          "type": "uint256[3]"
        }
      ],
      "name": "enterGrade",
      "outputs": [],
      "stateMutability": "nonpayable",
      "type": "function"
    },
    {
      "inputs": [
        {
          "internalType": "uint256",
          "name": "",
          "type": "uint256"
        }
      ],
      "name": "idToStudents",
      "outputs": [
        {
          "internalType": "uint256",
          "name": "ID",
          "type": "uint256"
        },
        {
          "internalType": "string",
          "name": "name",
          "type": "string"
        },
        {
          "internalType": "uint256",
          "name": "term",
          "type": "uint256"
        },
        {
          "internalType": "bool",
          "name": "isPaid",
          "type": "bool"
        }
      ],
      "stateMutability": "view",
      "type": "function"
    },
    {
      "inputs": [
        {
          "internalType": "uint256",
          "name": "_id",
          "type": "uint256"
        }
      ],
      "name": "payFee",
      "outputs": [],
      "stateMutability": "payable",
      "type": "function"
    },
    {
      "inputs": [],
      "name": "teacher",
      "outputs": [
        {
          "internalType": "address",
          "name": "",
          "type": "address"
        }
      ],
      "stateMutability": "view",
      "type": "function"
    },
    {
      "inputs": [],
      "name": "viewAllStudents",
      "outputs": [
        {
          "components": [
            {
              "internalType": "uint256",
              "name": "ID",
              "type": "uint256"
            },
            {
              "internalType": "string",
              "name": "name",
              "type": "string"
            },
            {
              "internalType": "uint256[]",
              "name": "grades",
              "type": "uint256[]"
            },
            {
              "internalType": "uint256",
              "name": "term",
              "type": "uint256"
            },
            {
              "internalType": "bool",
              "name": "isPaid",
              "type": "bool"
            }
          ],
          "internalType": "struct School.Student[]",
          "name": "",
          "type": "tuple[]"
        }
      ],
      "stateMutability": "view",
      "type": "function"
    },
    {
      "inputs": [
        {
          "internalType": "uint256",
          "name": "_id",
          "type": "uint256"
        }
      ],
      "name": "viewStudent",
      "outputs": [
        {
          "components": [
            {
              "internalType": "uint256",
              "name": "ID",
              "type": "uint256"
            },
            {
              "internalType": "string",
              "name": "name",
              "type": "string"
            },
            {
              "internalType": "uint256[]",
              "name": "grades",
              "type": "uint256[]"
            },
            {
              "internalType": "uint256",
              "name": "term",
              "type": "uint256"
            },
            {
              "internalType": "bool",
              "name": "isPaid",
              "type": "bool"
            }
          ],
          "internalType": "struct School.Student",
          "name": "",
          "type": "tuple"
        }
      ],
      "stateMutability": "view",
      "type": "function"
    },
    {
      "inputs": [],
      "name": "viewTeacher",
      "outputs": [
        {
          "internalType": "address",
          "name": "",
          "type": "address"
        }
      ],
      "stateMutability": "view",
      "type": "function"
    }
  ],
  "bytecode": "0x60806040523480156200001157600080fd5b50604051620017b0380380620017b08339818101604052810190620000379190620000c6565b8060008190555033600160006101000a81548173ffffffffffffffffffffffffffffffffffffffff021916908373ffffffffffffffffffffffffffffffffffffffff16021790555050620000f8565b600080fd5b6000819050919050565b620000a0816200008b565b8114620000ac57600080fd5b50565b600081519050620000c08162000095565b92915050565b600060208284031215620000df57620000de62000086565b5b6000620000ef84828501620000af565b91505092915050565b6116a880620001086000396000f3fe6080604052600436106100865760003560e01c8063b46bff8911610059578063b46bff8914610133578063b5037f9f1461015e578063c47bd95a14610187578063d289ade2146101b2578063f5f9786c146101ce57610086565b80630ba6b30a1461008b578063420977d8146100a2578063453e056a146100df57806369e7af4314610108575b600080fd5b34801561009757600080fd5b506100a061020e565b005b3480156100ae57600080fd5b506100c960048036038101906100c49190610c71565b610420565b6040516100d69190610e84565b60405180910390f35b3480156100eb57600080fd5b5061010660048036038101906101019190610f0b565b610566565b005b34801561011457600080fd5b5061011d61071b565b60405161012a9190611097565b60405180910390f35b34801561013f57600080fd5b50610148610914565b60405161015591906110fa565b60405180910390f35b34801561016a57600080fd5b5061018560048036038101906101809190611137565b61093a565b005b34801561019357600080fd5b5061019c6109be565b6040516101a991906110fa565b60405180910390f35b6101cc60048036038101906101c79190610c71565b6109e8565b005b3480156101da57600080fd5b506101f560048036038101906101f09190610c71565b610a84565b60405161020594939291906111df565b60405180910390f35b3373ffffffffffffffffffffffffffffffffffffffff16600160009054906101000a900473ffffffffffffffffffffffffffffffffffffffff1673ffffffffffffffffffffffffffffffffffffffff161461026857600080fd5b6000600190505b600160035461027e919061125a565b81101561041d57600080600090505b60038110156102e9576002600084815260200190815260200160002060020181815481106102be576102bd61128e565b5b9060005260206000200154826102d4919061125a565b915080806102e1906112bd565b91505061028d565b5060006003826102f99190611334565b9050603281101580156103335750600115156002600085815260200190815260200160002060040160009054906101000a900460ff161515145b156103655760026000848152602001908152602001600020600301600081548092919061035f906112bd565b91905055505b60006002600085815260200190815260200160002060040160006101000a81548160ff021916908315150217905550600367ffffffffffffffff8111156103af576103ae611365565b5b6040519080825280602002602001820160405280156103dd5781602001602082028036833780820191505090505b50600260008581526020019081526020016000206002019080519060200190610407929190610b49565b5050508080610415906112bd565b91505061026f565b50565b610428610b96565b600260008381526020019081526020016000206040518060a001604052908160008201548152602001600182018054610460906113c3565b80601f016020809104026020016040519081016040528092919081815260200182805461048c906113c3565b80156104d95780601f106104ae576101008083540402835291602001916104d9565b820191906000526020600020905b8154815290600101906020018083116104bc57829003601f168201915b505050505081526020016002820180548060200260200160405190810160405280929190818152602001828054801561053157602002820191906000526020600020905b81548152602001906001019080831161051d575b50505050508152602001600382015481526020016004820160009054906101000a900460ff1615151515815250509050919050565b3373ffffffffffffffffffffffffffffffffffffffff16600160009054906101000a900473ffffffffffffffffffffffffffffffffffffffff1673ffffffffffffffffffffffffffffffffffffffff16146105c057600080fd5b600360008154809291906105d3906112bd565b919050555060006040518060a00160405280600354815260200184848080601f016020809104026020016040519081016040528093929190818152602001838380828437600081840152601f19601f820116905080830192505050505050508152602001600367ffffffffffffffff81111561065257610651611365565b5b6040519080825280602002602001820160405280156106805781602001602082028036833780820191505090505b50815260200160018152602001600015158152509050806002600060035481526020019081526020016000206000820151816000015560208201518160010190816106cb91906115a0565b5060408201518160020190805190602001906106e8929190610b49565b506060820151816003015560808201518160040160006101000a81548160ff021916908315150217905550905050505050565b6060600060035467ffffffffffffffff81111561073b5761073a611365565b5b60405190808252806020026020018201604052801561077457816020015b610761610b96565b8152602001906001900390816107595790505b509050600080600190505b600160035461078e919061125a565b81101561090b57600260008281526020019081526020016000206040518060a0016040529081600082015481526020016001820180546107cd906113c3565b80601f01602080910402602001604051908101604052809291908181526020018280546107f9906113c3565b80156108465780601f1061081b57610100808354040283529160200191610846565b820191906000526020600020905b81548152906001019060200180831161082957829003601f168201915b505050505081526020016002820180548060200260200160405190810160405280929190818152602001828054801561089e57602002820191906000526020600020905b81548152602001906001019080831161088a575b50505050508152602001600382015481526020016004820160009054906101000a900460ff1615151515815250508383815181106108df576108de61128e565b5b602002602001018190525081806108f5906112bd565b9250508080610903906112bd565b91505061077f565b50819250505090565b600160009054906101000a900473ffffffffffffffffffffffffffffffffffffffff1681565b3373ffffffffffffffffffffffffffffffffffffffff16600160009054906101000a900473ffffffffffffffffffffffffffffffffffffffff1673ffffffffffffffffffffffffffffffffffffffff161461099457600080fd5b80600260008481526020019081526020016000206002019060036109b9929190610bc7565b505050565b6000600160009054906101000a900473ffffffffffffffffffffffffffffffffffffffff16905090565b6000543410156109f757600080fd5b60016002600083815260200190815260200160002060040160006101000a81548160ff021916908315150217905550600054341115610a815760008054340390503373ffffffffffffffffffffffffffffffffffffffff166108fc829081150290604051600060405180830381858888f19350505050158015610a7e573d6000803e3d6000fd5b50505b50565b6002602052806000526040600020600091509050806000015490806001018054610aad906113c3565b80601f0160208091040260200160405190810160405280929190818152602001828054610ad9906113c3565b8015610b265780601f10610afb57610100808354040283529160200191610b26565b820191906000526020600020905b815481529060010190602001808311610b0957829003601f168201915b5050505050908060030154908060040160009054906101000a900460ff16905084565b828054828255906000526020600020908101928215610b85579160200282015b82811115610b84578251825591602001919060010190610b69565b5b509050610b929190610c14565b5090565b6040518060a00160405280600081526020016060815260200160608152602001600081526020016000151581525090565b828054828255906000526020600020908101928215610c03579160200282015b82811115610c02578235825591602001919060010190610be7565b5b509050610c109190610c14565b5090565b5b80821115610c2d576000816000905550600101610c15565b5090565b600080fd5b600080fd5b6000819050919050565b610c4e81610c3b565b8114610c5957600080fd5b50565b600081359050610c6b81610c45565b92915050565b600060208284031215610c8757610c86610c31565b5b6000610c9584828501610c5c565b91505092915050565b610ca781610c3b565b82525050565b600081519050919050565b600082825260208201905092915050565b60005b83811015610ce7578082015181840152602081019050610ccc565b60008484015250505050565b6000601f19601f8301169050919050565b6000610d0f82610cad565b610d198185610cb8565b9350610d29818560208601610cc9565b610d3281610cf3565b840191505092915050565b600081519050919050565b600082825260208201905092915050565b6000819050602082019050919050565b6000610d758383610c9e565b60208301905092915050565b6000602082019050919050565b6000610d9982610d3d565b610da38185610d48565b9350610dae83610d59565b8060005b83811015610ddf578151610dc68882610d69565b9750610dd183610d81565b925050600181019050610db2565b5085935050505092915050565b60008115159050919050565b610e0181610dec565b82525050565b600060a083016000830151610e1f6000860182610c9e565b5060208301518482036020860152610e378282610d04565b91505060408301518482036040860152610e518282610d8e565b9150506060830151610e666060860182610c9e565b506080830151610e796080860182610df8565b508091505092915050565b60006020820190508181036000830152610e9e8184610e07565b905092915050565b600080fd5b600080fd5b600080fd5b60008083601f840112610ecb57610eca610ea6565b5b8235905067ffffffffffffffff811115610ee857610ee7610eab565b5b602083019150836001820283011115610f0457610f03610eb0565b5b9250929050565b60008060208385031215610f2257610f21610c31565b5b600083013567ffffffffffffffff811115610f4057610f3f610c36565b5b610f4c85828601610eb5565b92509250509250929050565b600081519050919050565b600082825260208201905092915050565b6000819050602082019050919050565b600060a083016000830151610f9c6000860182610c9e565b5060208301518482036020860152610fb48282610d04565b91505060408301518482036040860152610fce8282610d8e565b9150506060830151610fe36060860182610c9e565b506080830151610ff66080860182610df8565b508091505092915050565b600061100d8383610f84565b905092915050565b6000602082019050919050565b600061102d82610f58565b6110378185610f63565b93508360208202850161104985610f74565b8060005b8581101561108557848403895281516110668582611001565b945061107183611015565b925060208a0199505060018101905061104d565b50829750879550505050505092915050565b600060208201905081810360008301526110b18184611022565b905092915050565b600073ffffffffffffffffffffffffffffffffffffffff82169050919050565b60006110e4826110b9565b9050919050565b6110f4816110d9565b82525050565b600060208201905061110f60008301846110eb565b92915050565b60008190508260206003028201111561113157611130610eb0565b5b92915050565b6000806080838503121561114e5761114d610c31565b5b600061115c85828601610c5c565b925050602061116d85828601611115565b9150509250929050565b61118081610c3b565b82525050565b600082825260208201905092915050565b60006111a282610cad565b6111ac8185611186565b93506111bc818560208601610cc9565b6111c581610cf3565b840191505092915050565b6111d981610dec565b82525050565b60006080820190506111f46000830187611177565b81810360208301526112068186611197565b90506112156040830185611177565b61122260608301846111d0565b95945050505050565b7f4e487b7100000000000000000000000000000000000000000000000000000000600052601160045260246000fd5b600061126582610c3b565b915061127083610c3b565b92508282019050808211156112885761128761122b565b5b92915050565b7f4e487b7100000000000000000000000000000000000000000000000000000000600052603260045260246000fd5b60006112c882610c3b565b91507fffffffffffffffffffffffffffffffffffffffffffffffffffffffffffffffff82036112fa576112f961122b565b5b600182019050919050565b7f4e487b7100000000000000000000000000000000000000000000000000000000600052601260045260246000fd5b600061133f82610c3b565b915061134a83610c3b565b92508261135a57611359611305565b5b828204905092915050565b7f4e487b7100000000000000000000000000000000000000000000000000000000600052604160045260246000fd5b7f4e487b7100000000000000000000000000000000000000000000000000000000600052602260045260246000fd5b600060028204905060018216806113db57607f821691505b6020821081036113ee576113ed611394565b5b50919050565b60008190508160005260206000209050919050565b60006020601f8301049050919050565b600082821b905092915050565b6000600883026114567fffffffffffffffffffffffffffffffffffffffffffffffffffffffffffffffff82611419565b6114608683611419565b95508019841693508086168417925050509392505050565b6000819050919050565b600061149d61149861149384610c3b565b611478565b610c3b565b9050919050565b6000819050919050565b6114b783611482565b6114cb6114c3826114a4565b848454611426565b825550505050565b600090565b6114e06114d3565b6114eb8184846114ae565b505050565b5b8181101561150f576115046000826114d8565b6001810190506114f1565b5050565b601f82111561155457611525816113f4565b61152e84611409565b8101602085101561153d578190505b61155161154985611409565b8301826114f0565b50505b505050565b600082821c905092915050565b600061157760001984600802611559565b1980831691505092915050565b60006115908383611566565b9150826002028217905092915050565b6115a982610cad565b67ffffffffffffffff8111156115c2576115c1611365565b5b6115cc82546113c3565b6115d7828285611513565b600060209050601f83116001811461160a57600084156115f8578287015190505b6116028582611584565b86555061166a565b601f198416611618866113f4565b60005b828110156116405784890151825560018201915060208501945060208101905061161b565b8683101561165d5784890151611659601f891682611566565b8355505b6001600288020188555050505b50505050505056fea264697066735822122093eba556ff7c6fbf6b7b60423da2acfacbac863a17b7f6ab27576b669a83d35b64736f6c63430008120033",
  "linkReferences": {},
  "deployedLinkReferences": {}
}